{
  "_format": "hh-sol-artifact-1",
  "contractName": "MultiSignatureWallet",
  "sourceName": "contracts/MultiSignatureWallet.sol",
  "abi": [
    {
      "inputs": [
        {
          "internalType": "address[]",
          "name": "_owners",
          "type": "address[]"
        },
        {
          "internalType": "uint256",
          "name": "_numOfConfirmationsRequired",
          "type": "uint256"
        }
      ],
      "stateMutability": "nonpayable",
      "type": "constructor"
    },
    {
      "anonymous": false,
      "inputs": [
        {
          "indexed": true,
          "internalType": "address",
          "name": "owner",
          "type": "address"
        },
        {
          "indexed": true,
          "internalType": "uint256",
          "name": "transactionId",
          "type": "uint256"
        }
      ],
      "name": "ConfirmTransaction",
      "type": "event"
    },
    {
      "anonymous": false,
      "inputs": [
        {
          "indexed": true,
          "internalType": "address",
          "name": "sender",
          "type": "address"
        },
        {
          "indexed": false,
          "internalType": "uint256",
          "name": "amount",
          "type": "uint256"
        },
        {
          "indexed": false,
          "internalType": "uint256",
          "name": "balance",
          "type": "uint256"
        }
      ],
      "name": "Deposit",
      "type": "event"
    },
    {
      "anonymous": false,
      "inputs": [
        {
          "indexed": true,
          "internalType": "address",
          "name": "owner",
          "type": "address"
        },
        {
          "indexed": true,
          "internalType": "uint256",
          "name": "transactionId",
          "type": "uint256"
        }
      ],
      "name": "ExecuteTransaction",
      "type": "event"
    },
    {
      "anonymous": false,
      "inputs": [
        {
          "indexed": true,
          "internalType": "address",
          "name": "owner",
          "type": "address"
        },
        {
          "indexed": true,
          "internalType": "uint256",
          "name": "transactionId",
          "type": "uint256"
        }
      ],
      "name": "RevokeConfirmation",
      "type": "event"
    },
    {
      "anonymous": false,
      "inputs": [
        {
          "indexed": true,
          "internalType": "address",
          "name": "owner",
          "type": "address"
        },
        {
          "indexed": true,
          "internalType": "uint256",
          "name": "transactionId",
          "type": "uint256"
        },
        {
          "indexed": true,
          "internalType": "address",
          "name": "transactionTo",
          "type": "address"
        },
        {
          "indexed": false,
          "internalType": "uint256",
          "name": "value",
          "type": "uint256"
        },
        {
          "indexed": false,
          "internalType": "bytes",
          "name": "data",
          "type": "bytes"
        }
      ],
      "name": "SubmitTransaction",
      "type": "event"
    },
    {
      "inputs": [
        {
          "internalType": "uint256",
          "name": "_txIndex",
          "type": "uint256"
        }
      ],
      "name": "confirmTransaction",
      "outputs": [],
      "stateMutability": "nonpayable",
      "type": "function"
    },
    {
      "inputs": [
        {
          "internalType": "uint256",
          "name": "_txIndex",
          "type": "uint256"
        }
      ],
      "name": "executeTransaction",
      "outputs": [],
      "stateMutability": "nonpayable",
      "type": "function"
    },
    {
      "inputs": [],
      "name": "getOwners",
      "outputs": [
        {
          "internalType": "address[]",
          "name": "",
          "type": "address[]"
        }
      ],
      "stateMutability": "view",
      "type": "function"
    },
    {
      "inputs": [
        {
          "internalType": "uint256",
          "name": "_txIndex",
          "type": "uint256"
        }
      ],
      "name": "getTransaction",
      "outputs": [
        {
          "internalType": "address",
          "name": "to",
          "type": "address"
        },
        {
          "internalType": "uint256",
          "name": "value",
          "type": "uint256"
        },
        {
          "internalType": "bytes",
          "name": "data",
          "type": "bytes"
        },
        {
          "internalType": "bool",
          "name": "executed",
          "type": "bool"
        },
        {
          "internalType": "uint256",
          "name": "numConfirmations",
          "type": "uint256"
        }
      ],
      "stateMutability": "view",
      "type": "function"
    },
    {
      "inputs": [],
      "name": "getTransactionsCount",
      "outputs": [
        {
          "internalType": "uint256",
          "name": "",
          "type": "uint256"
        }
      ],
      "stateMutability": "view",
      "type": "function"
    },
    {
      "inputs": [
        {
          "internalType": "uint256",
          "name": "",
          "type": "uint256"
        },
        {
          "internalType": "address",
          "name": "",
          "type": "address"
        }
      ],
      "name": "inConfirmed",
      "outputs": [
        {
          "internalType": "bool",
          "name": "",
          "type": "bool"
        }
      ],
      "stateMutability": "view",
      "type": "function"
    },
    {
      "inputs": [
        {
          "internalType": "address",
          "name": "",
          "type": "address"
        }
      ],
      "name": "isOwner",
      "outputs": [
        {
          "internalType": "bool",
          "name": "",
          "type": "bool"
        }
      ],
      "stateMutability": "view",
      "type": "function"
    },
    {
      "inputs": [],
      "name": "numConfirmationRequired",
      "outputs": [
        {
          "internalType": "uint256",
          "name": "",
          "type": "uint256"
        }
      ],
      "stateMutability": "view",
      "type": "function"
    },
    {
      "inputs": [
        {
          "internalType": "uint256",
          "name": "_txIndex",
          "type": "uint256"
        }
      ],
      "name": "removeConfirmation",
      "outputs": [],
      "stateMutability": "nonpayable",
      "type": "function"
    },
    {
      "inputs": [
        {
          "internalType": "address",
          "name": "_to",
          "type": "address"
        },
        {
          "internalType": "uint256",
          "name": "_value",
          "type": "uint256"
        },
        {
          "internalType": "bytes",
          "name": "_data",
          "type": "bytes"
        }
      ],
      "name": "submitTransaction",
      "outputs": [],
      "stateMutability": "nonpayable",
      "type": "function"
    },
    {
      "stateMutability": "payable",
      "type": "receive"
    }
  ],
  "bytecode": "0x60806040523480156200001157600080fd5b50604051620024d5380380620024d583398181016040528101906200003791906200050d565b60008251116200007e576040517f08c379a00000000000000000000000000000000000000000000000000000000081526004016200007590620005d4565b60405180910390fd5b60008111801562000090575081518111155b620000d2576040517f08c379a0000000000000000000000000000000000000000000000000000000008152600401620000c9906200066c565b60405180910390fd5b60005b8251811015620002d4576000838281518110620000f757620000f66200068e565b5b60200260200101519050600073ffffffffffffffffffffffffffffffffffffffff168173ffffffffffffffffffffffffffffffffffffffff160362000173576040517f08c379a00000000000000000000000000000000000000000000000000000000081526004016200016a906200070d565b60405180910390fd5b600160008273ffffffffffffffffffffffffffffffffffffffff1673ffffffffffffffffffffffffffffffffffffffff16815260200190815260200160002060009054906101000a900460ff161562000203576040517f08c379a0000000000000000000000000000000000000000000000000000000008152600401620001fa906200077f565b60405180910390fd5b60018060008373ffffffffffffffffffffffffffffffffffffffff1673ffffffffffffffffffffffffffffffffffffffff16815260200190815260200160002060006101000a81548160ff0219169083151502179055506000819080600181540180825580915050600190039060005260206000200160009091909190916101000a81548173ffffffffffffffffffffffffffffffffffffffff021916908373ffffffffffffffffffffffffffffffffffffffff160217905550508080620002cb90620007d0565b915050620000d5565b508060028190555050506200081d565b6000604051905090565b600080fd5b600080fd5b600080fd5b6000601f19601f8301169050919050565b7f4e487b7100000000000000000000000000000000000000000000000000000000600052604160045260246000fd5b6200034882620002fd565b810181811067ffffffffffffffff821117156200036a57620003696200030e565b5b80604052505050565b60006200037f620002e4565b90506200038d82826200033d565b919050565b600067ffffffffffffffff821115620003b057620003af6200030e565b5b602082029050602081019050919050565b600080fd5b600073ffffffffffffffffffffffffffffffffffffffff82169050919050565b6000620003f382620003c6565b9050919050565b6200040581620003e6565b81146200041157600080fd5b50565b6000815190506200042581620003fa565b92915050565b6000620004426200043c8462000392565b62000373565b90508083825260208201905060208402830185811115620004685762000467620003c1565b5b835b8181101562000495578062000480888262000414565b8452602084019350506020810190506200046a565b5050509392505050565b600082601f830112620004b757620004b6620002f8565b5b8151620004c98482602086016200042b565b91505092915050565b6000819050919050565b620004e781620004d2565b8114620004f357600080fd5b50565b6000815190506200050781620004dc565b92915050565b60008060408385031215620005275762000526620002ee565b5b600083015167ffffffffffffffff811115620005485762000547620002f3565b5b62000556858286016200049f565b92505060206200056985828601620004f6565b9150509250929050565b600082825260208201905092915050565b7f4f776e6572732052657175697265640000000000000000000000000000000000600082015250565b6000620005bc600f8362000573565b9150620005c98262000584565b602082019050919050565b60006020820190508181036000830152620005ef81620005ad565b9050919050565b7f496e76616c6964204e756d626572204f6620526571756972656420436f6e666960008201527f726d6174696f6e00000000000000000000000000000000000000000000000000602082015250565b60006200065460278362000573565b91506200066182620005f6565b604082019050919050565b60006020820190508181036000830152620006878162000645565b9050919050565b7f4e487b7100000000000000000000000000000000000000000000000000000000600052603260045260246000fd5b7f496e7661696c64204f776e657200000000000000000000000000000000000000600082015250565b6000620006f5600d8362000573565b91506200070282620006bd565b602082019050919050565b600060208201905081810360008301526200072881620006e6565b9050919050565b7f4f776e6572204e6f7420556e6971756500000000000000000000000000000000600082015250565b60006200076760108362000573565b915062000774826200072f565b602082019050919050565b600060208201905081810360008301526200079a8162000758565b9050919050565b7f4e487b7100000000000000000000000000000000000000000000000000000000600052601160045260246000fd5b6000620007dd82620004d2565b91507fffffffffffffffffffffffffffffffffffffffffffffffffffffffffffffffff8203620008125762000811620007a1565b5b600182019050919050565b611ca8806200082d6000396000f3fe6080604052600436106100955760003560e01c8063a0e67e2b11610059578063a0e67e2b14610202578063c01a8c841461022d578063c642747414610256578063e3782c141461027f578063ee22610b146102a8576100ec565b80632f54bf6e146100f157806333ea3dc81461012e5780633d454d561461016f578063578cb8f9146101ac5780639b6a34d3146101d7576100ec565b366100ec573373ffffffffffffffffffffffffffffffffffffffff167f90890809c654f11d6e72a28fa60149770a0d11ec6c92319d6ceb2bb0a4ea1a1534476040516100e2929190610f9f565b60405180910390a2005b600080fd5b3480156100fd57600080fd5b506101186004803603810190610113919061103a565b6102d1565b6040516101259190611082565b60405180910390f35b34801561013a57600080fd5b50610155600480360381019061015091906110c9565b6102f1565b604051610166959493929190611195565b60405180910390f35b34801561017b57600080fd5b50610196600480360381019061019191906111ef565b610404565b6040516101a39190611082565b60405180910390f35b3480156101b857600080fd5b506101c1610433565b6040516101ce919061122f565b60405180910390f35b3480156101e357600080fd5b506101ec610440565b6040516101f9919061122f565b60405180910390f35b34801561020e57600080fd5b50610217610446565b6040516102249190611308565b60405180910390f35b34801561023957600080fd5b50610254600480360381019061024f91906110c9565b6104d4565b005b34801561026257600080fd5b5061027d6004803603810190610278919061145f565b6107b1565b005b34801561028b57600080fd5b506102a660048036038101906102a191906110c9565b6109b4565b005b3480156102b457600080fd5b506102cf60048036038101906102ca91906110c9565b610c8e565b005b60016020528060005260406000206000915054906101000a900460ff1681565b600080606060008060006004878154811061030f5761030e6114ce565b5b906000526020600020906005020190508060000160009054906101000a900473ffffffffffffffffffffffffffffffffffffffff168160010154826002018360030160009054906101000a900460ff1684600401548280546103709061152c565b80601f016020809104026020016040519081016040528092919081815260200182805461039c9061152c565b80156103e95780601f106103be576101008083540402835291602001916103e9565b820191906000526020600020905b8154815290600101906020018083116103cc57829003601f168201915b50505050509250955095509550955095505091939590929450565b60036020528160005260406000206020528060005260406000206000915091509054906101000a900460ff1681565b6000600480549050905090565b60025481565b606060008054806020026020016040519081016040528092919081815260200182805480156104ca57602002820191906000526020600020905b8160009054906101000a900473ffffffffffffffffffffffffffffffffffffffff1673ffffffffffffffffffffffffffffffffffffffff1681526020019060010190808311610480575b5050505050905090565b600160003373ffffffffffffffffffffffffffffffffffffffff1673ffffffffffffffffffffffffffffffffffffffff16815260200190815260200160002060009054906101000a900460ff16610560576040517f08c379a0000000000000000000000000000000000000000000000000000000008152600401610557906115e0565b60405180910390fd5b8060048054905081106105a8576040517f08c379a000000000000000000000000000000000000000000000000000000000815260040161059f9061164c565b60405180910390fd5b81600481815481106105bd576105bc6114ce565b5b906000526020600020906005020160030160009054906101000a900460ff161561061c576040517f08c379a0000000000000000000000000000000000000000000000000000000008152600401610613906116b8565b60405180910390fd5b826003600082815260200190815260200160002060003373ffffffffffffffffffffffffffffffffffffffff1673ffffffffffffffffffffffffffffffffffffffff16815260200190815260200160002060009054906101000a900460ff16156106bb576040517f08c379a00000000000000000000000000000000000000000000000000000000081526004016106b290611724565b60405180910390fd5b6000600485815481106106d1576106d06114ce565b5b9060005260206000209060050201905060018160040160008282546106f69190611773565b9250508190555060016003600087815260200190815260200160002060003373ffffffffffffffffffffffffffffffffffffffff1673ffffffffffffffffffffffffffffffffffffffff16815260200190815260200160002060006101000a81548160ff021916908315150217905550843373ffffffffffffffffffffffffffffffffffffffff167f5cbe105e36805f7820e291f799d5794ff948af2a5f664e580382defb6339004160405160405180910390a35050505050565b600160003373ffffffffffffffffffffffffffffffffffffffff1673ffffffffffffffffffffffffffffffffffffffff16815260200190815260200160002060009054906101000a900460ff1661083d576040517f08c379a0000000000000000000000000000000000000000000000000000000008152600401610834906115e0565b60405180910390fd5b6000600480549050905060046040518060a001604052808673ffffffffffffffffffffffffffffffffffffffff1681526020018581526020018481526020016000151581526020016000815250908060018154018082558091505060019003906000526020600020906005020160009091909190915060008201518160000160006101000a81548173ffffffffffffffffffffffffffffffffffffffff021916908373ffffffffffffffffffffffffffffffffffffffff1602179055506020820151816001015560408201518160020190816109199190611953565b5060608201518160030160006101000a81548160ff0219169083151502179055506080820151816004015550508373ffffffffffffffffffffffffffffffffffffffff16813373ffffffffffffffffffffffffffffffffffffffff167fd5a05bf70715ad82a09a756320284a1b54c9ff74cd0f8cce6219e79b563fe59d86866040516109a6929190611a25565b60405180910390a450505050565b600160003373ffffffffffffffffffffffffffffffffffffffff1673ffffffffffffffffffffffffffffffffffffffff16815260200190815260200160002060009054906101000a900460ff16610a40576040517f08c379a0000000000000000000000000000000000000000000000000000000008152600401610a37906115e0565b60405180910390fd5b806004805490508110610a88576040517f08c379a0000000000000000000000000000000000000000000000000000000008152600401610a7f9061164c565b60405180910390fd5b8160048181548110610a9d57610a9c6114ce565b5b906000526020600020906005020160030160009054906101000a900460ff1615610afc576040517f08c379a0000000000000000000000000000000000000000000000000000000008152600401610af3906116b8565b60405180910390fd5b600060048481548110610b1257610b116114ce565b5b906000526020600020906005020190506003600085815260200190815260200160002060003373ffffffffffffffffffffffffffffffffffffffff1673ffffffffffffffffffffffffffffffffffffffff16815260200190815260200160002060009054906101000a900460ff16610bbf576040517f08c379a0000000000000000000000000000000000000000000000000000000008152600401610bb690611aa1565b60405180910390fd5b6001816004016000828254610bd49190611ac1565b9250508190555060006003600086815260200190815260200160002060003373ffffffffffffffffffffffffffffffffffffffff1673ffffffffffffffffffffffffffffffffffffffff16815260200190815260200160002060006101000a81548160ff021916908315150217905550833373ffffffffffffffffffffffffffffffffffffffff167ff0dca620e2e81f7841d07bcc105e1704fb01475b278a9d4c236e1c62945edd5560405160405180910390a350505050565b600160003373ffffffffffffffffffffffffffffffffffffffff1673ffffffffffffffffffffffffffffffffffffffff16815260200190815260200160002060009054906101000a900460ff16610d1a576040517f08c379a0000000000000000000000000000000000000000000000000000000008152600401610d11906115e0565b60405180910390fd5b806004805490508110610d62576040517f08c379a0000000000000000000000000000000000000000000000000000000008152600401610d599061164c565b60405180910390fd5b8160048181548110610d7757610d766114ce565b5b906000526020600020906005020160030160009054906101000a900460ff1615610dd6576040517f08c379a0000000000000000000000000000000000000000000000000000000008152600401610dcd906116b8565b60405180910390fd5b600060048481548110610dec57610deb6114ce565b5b9060005260206000209060050201905060025481600401541015610e45576040517f08c379a0000000000000000000000000000000000000000000000000000000008152600401610e3c90611b41565b60405180910390fd5b60018160030160006101000a81548160ff02191690831515021790555060008160000160009054906101000a900473ffffffffffffffffffffffffffffffffffffffff1673ffffffffffffffffffffffffffffffffffffffff16826001015483600201604051610eb59190611bef565b60006040518083038185875af1925050503d8060008114610ef2576040519150601f19603f3d011682016040523d82523d6000602084013e610ef7565b606091505b5050905080610f3b576040517f08c379a0000000000000000000000000000000000000000000000000000000008152600401610f3290611c52565b60405180910390fd5b843373ffffffffffffffffffffffffffffffffffffffff167f5445f318f4f5fcfb66592e68e0cc5822aa15664039bd5f0ffde24c5a8142b1ac60405160405180910390a35050505050565b6000819050919050565b610f9981610f86565b82525050565b6000604082019050610fb46000830185610f90565b610fc16020830184610f90565b9392505050565b6000604051905090565b600080fd5b600080fd5b600073ffffffffffffffffffffffffffffffffffffffff82169050919050565b600061100782610fdc565b9050919050565b61101781610ffc565b811461102257600080fd5b50565b6000813590506110348161100e565b92915050565b6000602082840312156110505761104f610fd2565b5b600061105e84828501611025565b91505092915050565b60008115159050919050565b61107c81611067565b82525050565b60006020820190506110976000830184611073565b92915050565b6110a681610f86565b81146110b157600080fd5b50565b6000813590506110c38161109d565b92915050565b6000602082840312156110df576110de610fd2565b5b60006110ed848285016110b4565b91505092915050565b6110ff81610ffc565b82525050565b600081519050919050565b600082825260208201905092915050565b60005b8381101561113f578082015181840152602081019050611124565b60008484015250505050565b6000601f19601f8301169050919050565b600061116782611105565b6111718185611110565b9350611181818560208601611121565b61118a8161114b565b840191505092915050565b600060a0820190506111aa60008301886110f6565b6111b76020830187610f90565b81810360408301526111c9818661115c565b90506111d86060830185611073565b6111e56080830184610f90565b9695505050505050565b6000806040838503121561120657611205610fd2565b5b6000611214858286016110b4565b925050602061122585828601611025565b9150509250929050565b60006020820190506112446000830184610f90565b92915050565b600081519050919050565b600082825260208201905092915050565b6000819050602082019050919050565b61127f81610ffc565b82525050565b60006112918383611276565b60208301905092915050565b6000602082019050919050565b60006112b58261124a565b6112bf8185611255565b93506112ca83611266565b8060005b838110156112fb5781516112e28882611285565b97506112ed8361129d565b9250506001810190506112ce565b5085935050505092915050565b6000602082019050818103600083015261132281846112aa565b905092915050565b600080fd5b600080fd5b7f4e487b7100000000000000000000000000000000000000000000000000000000600052604160045260246000fd5b61136c8261114b565b810181811067ffffffffffffffff8211171561138b5761138a611334565b5b80604052505050565b600061139e610fc8565b90506113aa8282611363565b919050565b600067ffffffffffffffff8211156113ca576113c9611334565b5b6113d38261114b565b9050602081019050919050565b82818337600083830152505050565b60006114026113fd846113af565b611394565b90508281526020810184848401111561141e5761141d61132f565b5b6114298482856113e0565b509392505050565b600082601f8301126114465761144561132a565b5b81356114568482602086016113ef565b91505092915050565b60008060006060848603121561147857611477610fd2565b5b600061148686828701611025565b9350506020611497868287016110b4565b925050604084013567ffffffffffffffff8111156114b8576114b7610fd7565b5b6114c486828701611431565b9150509250925092565b7f4e487b7100000000000000000000000000000000000000000000000000000000600052603260045260246000fd5b7f4e487b7100000000000000000000000000000000000000000000000000000000600052602260045260246000fd5b6000600282049050600182168061154457607f821691505b602082108103611557576115566114fd565b5b50919050565b600082825260208201905092915050565b7f4f6e6c79204f776e657220497320416c6c6f77656420546f2043616c6c20546860008201527f69732046756e6374696f6e000000000000000000000000000000000000000000602082015250565b60006115ca602b8361155d565b91506115d58261156e565b604082019050919050565b600060208201905081810360008301526115f9816115bd565b9050919050565b7f5472616e73616374696f6e20446f6573204e6f74204578697374000000000000600082015250565b6000611636601a8361155d565b915061164182611600565b602082019050919050565b6000602082019050818103600083015261166581611629565b9050919050565b7f5472616e73616374696f6e20416c726561647920457865637574656400000000600082015250565b60006116a2601c8361155d565b91506116ad8261166c565b602082019050919050565b600060208201905081810360008301526116d181611695565b9050919050565b7f5472616e73616374696f6e20416c726561647920436f6e6669726d6564000000600082015250565b600061170e601d8361155d565b9150611719826116d8565b602082019050919050565b6000602082019050818103600083015261173d81611701565b9050919050565b7f4e487b7100000000000000000000000000000000000000000000000000000000600052601160045260246000fd5b600061177e82610f86565b915061178983610f86565b92508282019050808211156117a1576117a0611744565b5b92915050565b60008190508160005260206000209050919050565b60006020601f8301049050919050565b600082821b905092915050565b6000600883026118097fffffffffffffffffffffffffffffffffffffffffffffffffffffffffffffffff826117cc565b61181386836117cc565b95508019841693508086168417925050509392505050565b6000819050919050565b600061185061184b61184684610f86565b61182b565b610f86565b9050919050565b6000819050919050565b61186a83611835565b61187e61187682611857565b8484546117d9565b825550505050565b600090565b611893611886565b61189e818484611861565b505050565b5b818110156118c2576118b760008261188b565b6001810190506118a4565b5050565b601f821115611907576118d8816117a7565b6118e1846117bc565b810160208510156118f0578190505b6119046118fc856117bc565b8301826118a3565b50505b505050565b600082821c905092915050565b600061192a6000198460080261190c565b1980831691505092915050565b60006119438383611919565b9150826002028217905092915050565b61195c82611105565b67ffffffffffffffff81111561197557611974611334565b5b61197f825461152c565b61198a8282856118c6565b600060209050601f8311600181146119bd57600084156119ab578287015190505b6119b58582611937565b865550611a1d565b601f1984166119cb866117a7565b60005b828110156119f3578489015182556001820191506020850194506020810190506119ce565b86831015611a105784890151611a0c601f891682611919565b8355505b6001600288020188555050505b505050505050565b6000604082019050611a3a6000830185610f90565b8181036020830152611a4c818461115c565b90509392505050565b7f5472616e73616374696f6e204e6f7420436f6e6669726d656400000000000000600082015250565b6000611a8b60198361155d565b9150611a9682611a55565b602082019050919050565b60006020820190508181036000830152611aba81611a7e565b9050919050565b6000611acc82610f86565b9150611ad783610f86565b9250828203905081811115611aef57611aee611744565b5b92915050565b7f43616e6e6f7420457865637574652054686973205472616e73616374696f6e00600082015250565b6000611b2b601f8361155d565b9150611b3682611af5565b602082019050919050565b60006020820190508181036000830152611b5a81611b1e565b9050919050565b600081905092915050565b60008154611b798161152c565b611b838186611b61565b94506001821660008114611b9e5760018114611bb357611be6565b60ff1983168652811515820286019350611be6565b611bbc856117a7565b60005b83811015611bde57815481890152600182019150602081019050611bbf565b838801955050505b50505092915050565b6000611bfb8284611b6c565b915081905092915050565b7f5472616e73616374696f6e204661696c65640000000000000000000000000000600082015250565b6000611c3c60128361155d565b9150611c4782611c06565b602082019050919050565b60006020820190508181036000830152611c6b81611c2f565b905091905056fea26469706673582212205297f53ccabc86617ff07daa8374de027c2cbb59b40ba0891d8b1d507b43282c64736f6c63430008110033",
  "linkReferences": {},
  "deployedLinkReferences": {}
}